:020000040800F2
:1000000000400020A1C200081DC300081DC3000855
:1000100000000000000000000000000000000000E0
:100020000000000000000000000000001DC30008E8
:1000300000000000000000001DC3000839C90008CE
:100040001DC300081DC300081DC300081DC3000810
:100050001DC30008B5C500081DC3000805C600087B
:100060001DC3000825C400088DC400081DC3000876
:100070001DC300081DC300081DC300081DC30008E0
:100080001DC300081DC300081DC300081DC30008D0
:100090001DC300081DC300081DC300081DC30008C0
:1000A0001DC300081DC300081DC300081DC30008B0
:1000B0001DC300081DC300081DC300081DC30008A0
:0400C0005FF808F1EC
:1000C40010B5064C2378002B07D1054B002B02D02A
:1000D400044800E000BF0123237010BD5408002031
:1000E40000000000E8DC000808B5084B002B03D032
:1000F4000748084900E000BF07480368002B00D107
:1001040008BD064B002BFBD09847F9E70000000020
:10011400E8DC000858080020540800200000000013
:1001240000090FF00FF00FF00FF000000161001B49
:100134006D61696E2E6E63643B5573657249443D0F
:10014400307846464646464646460062000A3373C1
:10015400353076713130300063000B323031362F58
:1001640030322F32310064000931373A32333A34B5
:1001740035006500009E24FFFFFFFFAA99556630F5
:1001840000800100000007300160010000002430FD
:1001940001200142003FE53001C0010140D093300D
:1001A40000C00100000000300080010000000930A0
:1001B4000020010000000030008001000000013038
:1001C40000402500000000000000000000000000C6
:1001D400000000000000000000000000000000001B
:1001E400000000000000000000000000000000000B
:1001F40000000000000000000000000000000000FB
:1002040000000000000000000120000000000000C9
:100214001480000000000000000000000000000046
:1002240000000000000000000000000000000000CA
:1002340000000000000000000000000000000000BA
:1002440000000000000000000000000000000000AA
:1002540000000000000000000018AA300020010087
:100264000000003000800100000002300140020064
:1002740000000000000000300020010000020030F7
:100284000140020000000000000000300080010076
:100294000000013000200100000400300040DE00B6
:1002A400000000000000001000000000000000003A
:1002B400000000000000000000000000000000003A
:1002C400000000000000000000000000000000002A
:1002D400000000000000000000000000000000001A
:1002E400000000000000000000000000000000000A
:1002F40000000000000000000000000000000000FA
:1003040000000000000000000000000000000000E9
:1003140000000000000000000000000000000000D9
:100324000000000000000000000000000080020047
:100334000000000000000000000000000080300009
:1003440005000000000000000000000000000000A4
:100354000000000000000000000000000000000099
:100364000000000000000000000000000000000089
:100374000000000000000000000000000000000079
:100384000000000000000000000000000000000069
:100394000000000000000000000000000000000059
:1003A4000000000000000000000000000000000049
:1003B4000000000000000000000000000000000039
:1003C4000000000000000000000000000000000029
:1003D4000000000000000000000000000000000019
:1003E4000000000000000000000000000000000009
:1003F40000000000000000000000000000000000F9
:1004040000000000000000000000000000000000E8
:1004140000000000000000000000000000000000D8
:1004240000000000000000000000000000000000C8
:1004340000000000000000000000000000000000B8
:1004440000000000000000000000000000000000A8
:100454000000000000000018000000000000000080
:100464000000000000000000000880000000000000
:100474000000000000000000000000000000000078
:100484000000000000000000000000000000000068
:100494000000000000000000000000000000000058
:1004A4000000000000000000000000000000000048
:1004B4000000000000000000000000000000000038
:1004C4000000000000000000000000000000000028
:1004D4000000000000000000000000000000000018
:1004E4000000000000000000000000000000000008
:1004F4000000000000000000000000000000800078
:1005040000000000000000000000000000000000E7
:1005140000000000000000000000000000000000D7
:1005240000000000000000000000000000000000C7
:1005340000000000000000000000000000000000B7
:1005440000000000000000000000000000000000A7
:100554000000000000000000000000000000000097
:100564000000000000000000000000000000000087
:100574000000000000000000000000000000000077
:100584000000000000000000000000000000000067
:100594000000000000000000000000000000000057
:1005A4000000000000000000000000000000000047
:1005B4000000000000000000000000000000000037
:1005C4000000000000000000000000000000000027
:1005D4000000000000000000000000000000000017
:1005E4000000000000000000000000000000000007
:1005F40000000000000000000000000000000000F7
:1006040000000000000000000000000000000000E6
:10061400000000000000000000CA48300020010073
:100624000404003000800100000002300140020098
:10063400000000000000003000200100040600302B
:100644000140020000000000000000300020010012
:1006540004080030014002000000000000000030E7
:1006640000200100040A00300140020000000000E4
:100674000000003000200100040C003001400200A2
:10068400000000000000003000200100040E0030D3
:1006940001400200000000000000003000200100C2
:1006A400041000300140020000000000000000308F
:1006B400002001000414003001400200000000008A
:1006C4000000003000200100041600300140020048
:1006D4000000000000000030002001000418003079
:1006E4000140020000000000000000300020010072
:1006F400041A003001400200000000000000003035
:10070400002001000420003001400200000000002D
:1007140000000030002001000422003001400200EB
:10072400000000000000003000200100042400301C
:100734000140020000000000000000300020010021
:1007440006220030014002000000000000000030DA
:1007540000200100062400300140020000000000D7
:100764000000003000200100082000300140020099
:1007740000000000000000300020010008220030CA
:1007840001400200000000000000003000200100D1
:100794000824003001400200000000000000003086
:1007A400002001000A200030014002000000000087
:1007B40000000030002001000A2200300140020045
:1007C4000000000000000030002001000A24003076
:1007D4000140020000000000000000300020010081
:1007E4000C20003001400200000000000000003036
:1007F400002001000C220030014002000000000033
:1008040000000030002001000C24003001400200F0
:100814000000000000000030002001000E20003025
:100824000140020000000000000000300020010030
:100834000E220030014002000000000000000030E1
:10084400002001000E2400300140020000000000DE
:10085400000000300020010014220030014002009A
:1008640000000000000000300020010014240030CB
:1008740001400200000000000000003000200100E0
:100884001A040030014002000000000000000030A3
:10089400002001001A200030014002000000000086
:1008A40000000030002001001A2200300140020044
:1008B4000000000000000030002001001A24003075
:1008C4000140020000000000000000300020010090
:1008D4001C20003001400200000000000000003035
:1008E400002001001C220030014002000000000032
:1008F40000000030002001001C24003001400200F0
:100904000000000000000030002001001E04003040
:10091400014002000000000000000030002001003F
:100924001E0C0030014002000000000000000030F6
:10093400002001001E1000300140020000000000F1
:1009440000000030002001001E12003001400200AF
:1009540000000000000000300020010020000030F2
:1009640001400200000000000000003000200102ED
:1009740000000030014002000000000000000030D0
:1009840000200102000200300140020000000000CB
:100994000000003000200102000400300140020089
:1009A40000000000000000300020010200060030BA
:1009B400014002000000000000000030002001029D
:1009C4000008003001400200000000000000003078
:1009D40000200102000A0030014002000000000073
:1009E4000000003000200102000C00300140020031
:1009F400000000000000003000200102000E003062
:100A0400014002000000000000000030002001024C
:100A1400001000300140020000000000000000301F
:100A2400002001020012003001400200000000001A
:100A340000000030002001020014003001400200D8
:100A44000000000000000030002001020016003009
:100A540001400200000000000000003000200102FC
:100A640000180030014002000000000000000030C7
:100A740000200102001A00300140020000000000C2
:100A84000000003000200102001C00300140020080
:100A9400000000000000003000200102001E0030B1
:100AA40001400200000000000000003000200102AC
:100AB400002000300140020000000000000000306F
:100AC400002001020022003001400200000000006A
:100AD4000000003000200102002400300140020028
:100AE4000000000000000030002001020026003059
:100AF400014002000000000000000030002001025C
:100B04000028003001400200000000000000003016
:100B140000200102002A0030014002000000000011
:100B24000000003000200102002C003001400200CF
:100B3400000000000000003000200102002E003000
:100B4400014002000000000000000030002001020B
:100B540000300030014002000000000000000030BE
:100B640000200102003200300140020000000000B9
:100B74000000003000200102003400300140020077
:100B840000000000000000300020010200360030A8
:100B940001400200000000000000003000200102BB
:100BA4000038003001400200000000000000003066
:100BB40000200102003A0030014002000000000061
:100BC4000000003000200102003C0030014002001F
:100BD400000000000000003000200102003E003050
:100BE400014002000000000000000030002001026B
:100BF400004000300140020000000000000000300E
:100C04000020010200420030014002000000000008
:100C140000000030002001020044003001400200C6
:100C240000000000000000300020010200460030F7
:100C3400014002000000000000000030002001021A
:100C440000480030014002000000000000000030B5
:100C540000200102004A00300140020000000000B0
:100C64000000003000200102004C0030014002006E
:100C7400000000000000003000200102004E00309F
:100C840001400200000000000000003000200102CA
:100C9400005000300140020000000000000000305D
:100CA4000020010200520030014002000000000058
:100CB4000000003000200102005400300140020016
:100CC4000000000000000030002001020056003047
:100CD400014002000000000000000030002001027A
:100CE4000058003001400200000000000000003005
:100CF40000200102005A0030014002000000000000
:100D04000000003000200102005C003001400200BD
:100D1400000000000000003000200102005E0030EE
:100D24000140020000000000000000300020010229
:100D340000600030014002000000000000000030AC
:100D440000200102006200300140020000000000A7
:100D54000000003000200102006400300140020065
:100D64000000000000000030002001020066003096
:100D740001400200000000000000003000200102D9
:100D84000068003001400200000000000000003054
:100D940000200102006A003001400200000000004F
:100DA4000000003000200102006C0030014002000D
:100DB400000000000000003000200102006E00303E
:100DC4000140020000000000000000300020010289
:100DD40000700030014002000000000000000030FC
:100DE40000200102007200300140020000000000F7
:100DF40000000030002001020074003001400200B5
:100E040000000000000000300020010200760030E5
:100E14000140020000000000000000300020010238
:100E240000780030014002000000000000000030A3
:100E340000200102007A003001400200000000009E
:100E44000000003000200102007C0030014002005C
:100E5400000000000000003000200102007E00308D
:100E640001400200000000000000003000200102E8
:100E7400008000300140020000000000000000304B
:100E84000020010200820030014002000000000046
:100E94000000003000200102008400300140020004
:100EA4000000000000000030002001020086003035
:100EB4000140020000000000000000300020010298
:100EC40000880030014002000000000000000030F3
:100ED40000200102008A00300140020000000000EE
:100EE4000000003000200102008C003001400200AC
:100EF400000000000000003000200102008E0030DD
:100F04000140020000000000000000300020010247
:100F1400009000300140020000000000000000309A
:100F24000020010200920030014002000000000095
:100F34000000003000200102009400300140020053
:100F44000000000000000030002001020096003084
:100F540001400200000000000000003000200104F5
:100F640000000030014002000000000000000030DA
:100F740000200104000200300140020000000000D3
:100F84000000003000200104000400300140020091
:100F940000000000000000300020010400060030C2
:100FA40001400200000000000000003000200104A5
:100FB4000008003001400200000000000000003082
:100FC40000200104000A003001400200000000007B
:100FD4000000003000200104000C00300140020039
:100FE400000000000000003000200104000E00306A
:100FF4000140020000000000000000300020010455
:101004000010003001400200000000000000003029
:101014000020010400120030014002000000000022
:1010240000000030002001040014003001400200E0
:101034000000000000000030002001040016003011
:101044000140020000000000000000300020010404
:1010540000180030014002000000000000000030D1
:1010640000200104002000300140020000000000C4
:101074000000003000200104002200300140020082
:1010840000000000000000300020010400240030B3
:101094000140020000000000000000300080010058
:1010A40000000130002001000412003000404A001A
:1010B400000000000000000000000000000000022A
:1010C40040000000000000000000000000000000DC
:1010D400000000000000000000000000000000000C
:1010E40000000000000000000000000000000000FC
:1010F40000000000000000000000000000000000EC
:1011040000000000000000000000000000000000DB
:1011140000000000000000000000000000000000CB
:1011240000000000000000000000000000000000BB
:1011340000000000000000000000000000000000AB
:10114400000000000000000000000000000000009B
:10115400000000000000000000000000000000008B
:10116400000000000000000000000000000000007B
:10117400000000000000000000000000000000006B
:10118400000000000000000000000000000000005B
:10119400000000000000000000000000000000004B
:1011A400000000000000000000000000000000003B
:1011B400000000000000000000000000000000002B
:1011C400000000000000000000000000000000001B
:1011D40000000000000000000000AE30002001000C
:1011E400041C003000406F000000000000000000FC
:1011F40000000000000000000000000000000000EB
:1012040000000000000000000000000000000000DA
:1012140000000000000000000000000000000000CA
:1012240000000000000000000000000000000000BA
:1012340000000000000000000000000000000000AA
:101244000000000D0000000000000000000000008D
:10125400000000000000000000000000000000008A
:10126400000000000000000000000000000000007A
:10127400000000000000000000000000000000006A
:10128400000000000000000000000000000000005A
:10129400000000000000000000000000000000004A
:1012A400000000000000000000000000000000003A
:1012B400000000000000000000000000000000002A
:1012C40000000000000000000000000000000070AA
:1012D400000000000000000000000000000000000A
:1012E40000000000000000000000000000000000FA
:1012F40000000000000000000000000000000000EA
:1013040000000000000000000000000000000000D9
:1013140000000000000000000000000000000000C9
:1013240000000000000000000000000000000000B9
:1013340000000000000000000000000000000000A9
:101344000000000000000000000000000000000099
:101354000000000000000000000000000000000089
:101364000000000000000000000000000000000079
:101374000000000000000000000000000000000069
:101384000000000000000000000000000000000059
:101394000000000000000000000000000000000049
:1013A400000000000084213000200100060000300D
:1013B40000429A000000000000000000000000004D
:1013C4000000000000000000000000000000000019
:1013D4000000000000000000000000000000000009
:1013E40000000000000000000000000000000000F9
:1013F40000000000000000000000000000EE44FFB8
:10140400FFCFC0FFFFEE44FFFFFFCCEEDDE4E4E4DA
:10141400E4FFAAEEDDFAF5FFC3FFCCFFAA0000004B
:1014240000000000000000000000000000000000B8
:1014340000000000000000000000000000000000A8
:101444000000000000000000000000000000000098
:101454000000000000000000000000000000000088
:101464000000000000000000000000000000000078
:101474000000000000000000000000000000000068
:101484000000000000000000000000000000000058
:10149400000920300009203000092030000920789C
:1014A40000092478000920780009007800092478CC
:1014B4000000000000000000000000000000000028
:1014C4000000000000000000000000000000000018
:1014D4000000000000000000000000000000000008
:1014E40000000000000000000000000000000000F8
:1014F40000000000000000000000000000000000E8
:1015040000000000000000000000000000000000D7
:1015140000000000000000000000000000000000C7
:10152400000000000000000000092000000000008E
:1015340000092048000924480009244800090048FB
:101544000009244800000000000000000000000022
:101554000000000000000000000000000000000087
:101564000000000000000000000000000000000077
:10157400000000000000000000FFFFFFFF0000006B
:101584000000000000000000000000000000000057
:101594000000000000000000000000000000000047
:1015A4000000000000000000000000000000000037
:1015B40000000000000000000000000000CCF0FF6C
:1015C400FF00000000FFAAEDEDF3C0F3C0AACCAA0F
:1015D400CCF9F9EDEDFCFCEEEE000000000000009B
:1015E40000000000000000000000000000000000F7
:1015F40000000000000000000000000000000000E7
:1016040000000000000000000000000000000000D6
:1016140000000000000000000000000000000000C6
:1016240000000000000000000000000000000000B6
:1016340000000000000000000000000000000000A6
:101644000000000000000000000000000009140079
:1016540080010C000000000820041C000008003079
:1016640080041C0000000048200412000000000058
:101674000000000000000000000000000000000066
:101684000000000000000000000000000000000056
:101694000000000000000000000000000000000046
:1016A4000000000000000000000000000000000036
:1016B4000000000000000000000000000000000026
:1016C4000000000000000000000000000000000016
:1016D4000000000000000000000000000000000006
:1016E4000000101020040900000310000000010095
:1016F4000009109020000100008304040000200071
:1017040000000000000000000000000000000000D5
:1017140000000000000000000000000000000000C5
:1017240000000000000000000000000000000000B5
:1017340000000000000000000003000000000000A2
:101744000000000000000000000000000000000095
:101754000000000000000000000000000000000085
:101764000000000000000000000000000000000075
:101774000000000000000000000700D3000000800B
:1017840000C100D30000C6C003D3800000C8C7C195
:1017940003A34400C000000000000000000000009B
:1017A4000000000000000000000000000000000035
:1017B4000000000000000000000000000000000025
:1017C4000000000000000000000000000080000095
:1017D4000000000000000000000000000000000005
:1017E40000000000000000000000000000000000F5
:1017F40000000000000000000000000000000000E5
:1018040000000000000000000000000000000010C4
:1018140000000282000500100000040440108080D3
:1018240000002005400200801000000000000000BD
:1018340000000000000000000000000000000000A4
:101844000000000000000000000000000000000094
:101854000000000000000000000000000000000084
:101864000000000000000000000000000000000074
:101874000000000000000000000000000000000064
:101884000000000000000000000000000000000054
:101894000000000000000000000000000000C18003
:1018A4000000000000002000000000270C80220A35
:1018B40000002800060000000000768040000000C0
:1018C4000000000000000000000000000000000014
:1018D4000000000000000000000000000000000004
:1018E40000000000000001000000000000000000F3
:1018F40000000000000000000000000000000000E4
:1019040000000000000000000000000000000000D3
:1019140000000000000000000000000000000000C3
:1019240000000000000000000000000000000000B3
:1019340000000000000000A7020008000000008072
:101944000F182043000023800000000000008002E4
:101954000E00000000000000000000000000000075
:101964000000000000000000000000000000000073
:101974000000000000000000000000000000000063
:101984000000000000000000000000000000000053
:101994000000000000000000000000000000000043
:1019A4000000000000000000000000000000000033
:1019B4000000000000000000000000000000000023
:1019C40000000000000081000000001010000080F2
:1019D40080000804181028E28000148040002010C1
:1019E4008000400218000000000000000000000019
:1019F40000000000000000000000000000000000E3
:101A040000000000000000000000000000000000D2
:101A140000000000000000000000000000000000C2
:101A240000000000000000000000000000000000B2
:101A340000000000000000000000000000000000A2
:101A44000000000000000000000000000000000092
:101A540000000000000000000000000000000780FB
:101A64000C000440000002040C30A1E0000000025D
:101A74000C6CF20000000A000C00000000000000E2
:101A84000000000000000000000000000000000052
:101A94000000000000000000000000000000000042
:101AA4000000000000000000000000000000000032
:101AB4000000000000000000000000000000000022
:101AC4000000000000000000000000000000000012
:101AD4000000000000000000000000000000000002
:101AE400000000000000000000000000000002569A
:101AF40000000000010000000000000B83353000EE
:101B04000000000B9D00B3800001E16003000000B1
:101B140000000000000000000000000000000000C1
:101B240000000000000000000000000000000000B1
:101B340000000000000001000000000000000000A0
:101B44000000000000000000000000000000000091
:101B54000000000000000000000000000000000081
:101B64000000000000000000000000000000000071
:101B74000000000000000000000000000000000061
:101B84000000000000000000000000040000080045
:101B94000000000400010200080000000000000032
:101BA400020000000000000000000000000000002F
:101BB4000000000000000000000000000000000021
:101BC4000000000000000000000000000000000011
:101BD4000000000000000000000000000000000001
:101BE40000000000000000000000000000000000F1
:101BF40000000000000000000000000000000000E1
:101C040000000000000000000000000000000000D0
:101C140000000000000000000000000000000000C0
:101C2400000008000000600000000000040D000037
:101C3400000042000000000000000000000000005E
:101C44000000000000000000000000000000000090
:101C54000000000000000000000000000000000080
:101C64000000000000000000000000000000000070
:101C74000000000000000000000000000000000060
:101C84000000000000000000000000000000000050
:101C94000000000000000000000000000000000040
:101CA400000000000000000000000A000000000026
:101CB40000000000000000000070000000080000A8
:101CC400000000000000000004000000000000000C
:101CD4000000000000000000000000000000000000
:101CE40000000000000000000000000000000000F0
:101CF40000000000000000000000000000000000E0
:101D040000000000000000000000000000000000CF
:101D140000000000000000000000000000000000BF
:101D240000000000000000000000000000000000AF
:101D3400000000000000000000000000000000009F
:101D4400000000000000000000000000000000008F
:101D5400000000400000000000000000000000003F
:101D6400000000000000000000000000000000006F
:101D7400000000000000000000000000000000005F
:101D8400000000000000000000000000000000004F
:101D9400000000000000000000000000000000003F
:101DA400000000000000000000000000000000002F
:101DB400000000000000000000000000000000001F
:101DC400000000000000000000000000000000000F
:101DD40000000000000000000000000000000000FF
:101DE40000000000000000000000000000000000EF
:101DF40000000000000000000000000000000000DF
:101E040000000000000000000000000000000000CE
:101E140000000000000000000000000000755230C7
:101E2400002001000800003000427500000000009E
:101E3400000000000000000000000000000000009E
:101E4400000000000000000000000000000000008E
:101E5400000000000000000000000000000000007E
:101E6400000000000000000000000000000000006E
:101E7400000000000000000000CACAFFFFFFCCFF02
:101E8400FFFCCFFFFFFCFCEBEBFCF3FFFF000000CB
:101E940000FFCCFFFF000000000000000000000075
:101EA400000000000000000000000000000000002E
:101EB40000CFC0CACA0000000000000000000000FB
:101EC400000000000000000000000000000000000E
:101ED40000000000000000000000000000000000FE
:101EE40000000000000000000000000000000000EE
:101EF40000000000000000000000000000000000DE
:101F04000000000000000000000000000009203074
:101F14000009203000090030000920780009003051
:101F24000000000000092030000000000000000054
:101F3400000000000000000000000000000000009D
:101F440000000000000924780000000000000000E8
:101F5400000000000000000000000000000000007D
:101F6400000000000000000000000000000000006D
:101F7400000000000000000000000000000000005D
:101F8400000000000000000000000000000000004D
:101F9400000000000000000000000000000000003D
:101FA400000000000000000000000000000000002D
:101FB40000092000000900000000000000000000EB
:101FC400000000000000000000000000000000000D
:101FD40000000000000000000000000000000000FD
:101FE40000000000000000000000000000000000ED
:101FF40000000000000000000000000000000000DD
:1020040000000000000000000000000000000000CC
:1020140000000000000000000000000000000000BC
:1020240000000000000000000000000000000000AC
:10203400000000000000000000000000000000009C
:102044000000000000FAFAFFFFEDEDFFFF000000C2
:10205400000000000000000000000000000000007C
:10206400000000000000000000000000000000006C
:10207400000000000000000000000000000000005C
:10208400000000000000000000000000000000004C
:10209400000000000000000000000000000000003C
:1020A400000000000000000000000000000000002C
:1020B400000000000000000000000000000000001C
:1020C400000000000001900000010000000000007A
:1020D4000004120000000008200412000000004068
:1020E40000041000000000000000000000000000D8
:1020F40000000000000000000000000000011000CB
:1021040000010000000000000000000000000000CA
:1021140000000000000000000000000000000000BB
:1021240000000000000000000000000000000000AB
:10213400000000000000000000000000000000009B
:10214400000000000000000000000000000000008B
:10215400000000000000000000000000000408006F
:10216400000104000000200000030400000020001F
:1021740000810004000000000000000000000000D6
:10218400000000000000000000000000000000004B
:10219400000000000004080000000000000000002F
:1021A400000000000000000000000000000000002B
:1021B400000000000000000000000000000000001B
:1021C400000000000000000000000000000000000B
:1021D40000000000000000000000000000000000FB
:1021E40000000000000000000000000000000000EB
:1021F400000300000000C000000000030300000012
:102204000203C807000000030000000303000000ED
:1022140000000000000000000000000000000000BA
:102224000000000000000000C000000000000000EA
:10223400000000000000000000000000000000009A
:10224400000000000000000000000000000000008A
:10225400000000000000000000000000000000007A
:10226400000000000000000000000000000000006A
:10227400000000000000000000000000000000005A
:10228400000000000008000000001000000000082A
:10229400200000000408000000000001000000010C
:1022A4000800000000000000000000000000000022
:1022B400000000000000000000000000100000808A
:1022C4000000000000000000000001000000000009
:1022D40000000000000000000000000000000000FA
:1022E40000000000000000000000000000000000EA
:1022F40000000000000000000000000000000000DA
:1023040000000000000000000000000000000000C9
:102314000000000000000008000000002000000091
:102324000000000000010000000001400000000067
:102334000000000000000000000000000000000099
:102344000000000000000000000000000000000089
:102354000000000022000000000000000000010056
:102364000000000000000000000000000000000069
:102374000000000000000000000000000000000059
:102384000000000000000000000000000000000049
:102394000000000000000000000000000000000039
:1023A4000000000000000000000000080000000021
:1023B400080000000000022006002000000007477B
:1023C4000E000000000020000800000000000000D3
:1023D40000000000000000000000000000000000F9
:1023E40000000001800000001C000000000000004C
:1023F40000000000000000000000000000000000D9
:1024040000000000000000000000000000000000C8
:1024140000000000000000000000000000000000B8
:1024240000000000000000000000000000000000A8
:102434000000000000000000000000000000000098
:102444000000000000000000000000000200140072
:102454000000001010100000000100001000000037
:102464000000000000000000000000000000000068
:102474000000000000000000000000000000000058
:102484000000000000000000000000000000000048
:102494000000000000000000000000000000000038
:1024A4000000000000000000000000000000000028
:1024B4000000000000000000000000000000000018
:1024C4000000000000000000000000000000000008
:1024D400000000080000000000000000400001802F
:1024E4000C000000400000030C000000000060002D
:1024F4000C000000000000000000000000000000CC
:1025040000000000000000000000000400000000C3
:102514000C000000000000000000000000000000AB
:1025240000000000000000000000000000000000A7
:102534000000000000000000000000000000000097
:102544000000000000000000000000000000000087
:102554000000000000000000000000000000000077
:10256400000000000000000A000000000000000E4F
:10257400000000100100000E0000000041100000E7
:102584000000040001000000000000000000000042
:102594000000000000000000000000000000001423
:1025A40080000000010000000000000000000100A5
:1025B4000000000000000000000000000000000017
:1025C4000000000000000000000000000000000007
:1025D40000000000000000000000000000000000F7
:1025E40000000000000000000000000000000000E7
:1025F40000000000000000000000000000000000D7
:102604000000000020010000001000000000000095
:102614000000000020000000000000000000000096
:1026240000000000000000000000000000000000A6
:102634000000000000000000000000000000000096
:102644000000000000000000000000000000000086
:102654000000000000000000000000000000000076
:102664000000000000000000000000000000000066
:102674000000000000000000000000000000000056
:1026840000000000000000000000000000302000F6
:1026940000000000000900000000000000300000FD
:1026A4000020000000000000700000B000000000E6
:1026B4000000000000000000000000000000000016
:1026C4000000000000000000000000000000000006
:1026D40000000800000000000000000000000000EE
:1026E40000000000000000000000000000000000E6
:1026F40000000000000000000000000000000000D6
:1027040000000000000000000000000000000000C5
:1027140000000000000000000000000000000000B5
:102724000080E00000000000000000000A08000033
:10273400000000000680000000000000000000000F
:102744000000000000000000000000000000000085
:102754000000000000000000600000000000000015
:102764000000000000000100000000000000000064
:102774000000000000000000000000000000000055
:102784000000000000000000000000000000000045
:102794000000000000000000000000000000000035
:1027A4000000000000000000000000000000000025
:1027B4000000000000000000000000000000000015
:1027C4000000000000000000000000000000000005
:1027D40000000000000000000000000000000000F5
:1027E40000000000000000000000000000000000E5
:1027F40000000000000000000000000000000000D5
:1028040000ACF730002001000A00003000427500DF
:1028140000000000000000000000000000000000B4
:1028240000000000000000000000000000000000A4
:102834000000000000000000000000000000000094
:102844000000000000000000000000000000000084
:1028540000000000000000000000000000ACACFF1D
:10286400FFFCF3FFFF000000000000000000000078
:102874000000000000FCCFFFFF000000000000008B
:10288400000000000000000000FFAAFFFFFCCFFFD3
:1028940099FCFCFFAACFC0FFFF000000000000006D
:1028A4000000000000000000000000000000000024
:1028B4000000000000000000000000000000000014
:1028C4000000000000000000000000000000000004
:1028D40000000000000000000000000000000000F4
:1028E40000000000000000000000000000000000E4
:1028F4000009203000090030000000000000000042
:10290400000000000000000000090030000000008A
:10291400000000000000000000000000000920305A
:102924000009007800092478000920300000000024
:102934000000000000000000000000000000000093
:102944000000000000000000000000000000000083
:102954000000000000000000000000000000000073
:102964000000000000000000000000000000000063
:102974000000000000000000000000000000000053
:10298400000000000000000000000000000920001A
:1029940000000000000920000000000000092000E1
:1029A4000000000000000000000000000000000023
:1029B40000092048000924480009004800092000B3
:1029C4000000000000000000000000000000000003
:1029D40000000000000000000000000000000000F3
:1029E40000000000000000000000000000000000E3
:1029F40000000000000000000000000000000000D3
:102A040000000000000000000000000000000000C2
:102A140000000000000000000000000000000000B2
:102A240000FAFAFFFF00000000FC30FFFF00000086
:102A340000FFAAFFFF0000000000000000000000EB
:102A44000000000000EEEEEEDDFFF0FFCCFAF5FA38
:102A5400AFFC30FFFF000000000000000000000099
:102A64000000000000000000000000000000000062
:102A74000000000000000000000000000000000052
:102A84000000000000000000000000000000000042
:102A94000000000000000000000000000000000032
:102AA4000000000000000000000110000001000010
:102AB4000000000820000200000C0000800000005C
:102AC40000000008200410000000000000000000C6
:102AD4000000000000000000000000C0200403000B
:102AE4000009904080010200000000000000000086
:102AF40000000000000000000000000000000000D2
:102B040000000000000000000000000000000000C1
:102B140000000000000000000000000000000000B1
:102B240000000000000000000000000000000000A1
:102B34000000000000000000000000000000000091
:102B4400000408000002040000002000000000103F
:102B5400200000000003000000000000000000004E
:102B640000000000000000000000000000830408D2
:102B74000000100000800418200418000000000069
:102B84000000000000000000000000000000000041
:102B94000000000000000000000000000000000031
:102BA4000000000000000000000000000000000021
:102BB4000000000000000000000000000000000011
:102BC4000000000000000000000000000000000001
:102BD400000000000300000000C000000013000714
:102BE400000000130000000000C00300C800000340
:102BF40000000000000000000000000000000000D1
:102C040000000380D7C00003C0C003C00322C4D3A4
:102C1400C0000000000000000000000000000000F0
:102C240000000000000000000000000000000000A0
:102C34000000000000000000000000000000000090
:102C44000000000000000000000000000000000080
:102C54000000000000000000000000000000000070
:102C64000000000000000000080000000004000054
:102C74000000000000000000000000000010080038
:102C84000000000800000000000000000000000038
:102C94000000000000000402000401088004200277
:102CA4000800002080000000000000000000010077
:102CB4000000000000000000000000000000000010
:102CC4000000000000000000000000000000000000
:102CD40000000000000000000000000000000000F0
:102CE40000000000000000000000000000000000E0
:102CF40000000000000000000000000A00000000C6
:102D0400000000000000000000000280000000003D
:102D1400400000000000000000000000000000006F
:102D2400000000000000000000000160000000003E
:102D340058800280000170000100000000000000C3
:102D4400000001000000000000000000000000007E
:102D5400000000000000000000000000000000006F
:102D6400000000000000000000000000000000005F
:102D7400000000000000000000000000000000004F
:102D8400000000000000000000000000000000003F
:102D94000000000008000000000000A24000000045
:102DA4000000000400000000000000000600000015
:102DB400000000000000000000000000000000C44B
:102DC40000000002021AA010000003824800000064
:102DD40000000000000000000000000000000000EF
:102DE40000000000000000000000000000000000DF
:102DF40000000000000000000000000000000000CF
:102E040000000000000000000000000000000000BE
:102E140000000000000000000000000000000000AE
:102E2400000000020000000002000000000000009A
:102E3400000000800000000000000080000000008E
:102E4400020000000000000000000000000000007C
:102E540000082021000000009000420000004440CF
:102E6400000000000000000000000000000000005E
:102E7400000000000000000000000000000000004E
:102E8400000000000000000000000000000000003E
:102E9400000000000000000000000000000000002E
:102EA400000000000000000000000000000000001E
:102EB4000000000000000008000000000000000006
:102EC4000000018300000200000000000000000078
:102ED400000000000C0000000000000000000000E2
:102EE4000000000000380040000060000C000000FA
:102EF400000000000C0000000000000000000000C2
:102F040000000000000000000000000000000000BD
:102F140000000000000000000000000000000000AD
:102F2400000000000000000000000000000000009D
:102F3400000000000000000000000000000000008D
:102F440000000000000000000000000A0000000073
:102F54000000B000000000104000028000000000EB
:102F64000000000700000000410000000000000015
:102F740000000000000000000004080000000C2015
:102F84000700E1160001804001000000000000007D
:102F9400000001000000000000000000000000002C
:102FA400000000000000000000000000000000001D
:102FB400000000000000000000000000000000000D
:102FC40000000000000000000000000000000000FD
:102FD40000000000000000000000000000100000DD
:102FE40000000000000800000002102000000000A3
:102FF40000000000000800000000000000000000C5
:1030040000000000000800000000000000000000B4
:103014000000000102102000000000000200000473
:10302400000000001000010000000000000000008B
:10303400000000000000000000000000000000008C
:10304400000000000000000000000000000000007C
:10305400000000000000000000000000000000006C
:10306400000000000000000000000000000000005C
:103074000020000000000000000800000000000024
:103084000030000000000000000800000000000004
:103094000000000000000000900800000000000094
:1030A4000000600000004000002A9000000048007A
:1030B400000000000000000000000000000000000C
:1030C40000000000000000000000000000000000FC
:1030D40000000000000000000000000000000000EC
:1030E40000000000000000000000000000000000DC
:1030F40000000000000000000000000000000000CC
:10310400000000000070000000000000000000004B
:103114000008000000F000000000000E00000000A5
:10312400000000000000000000000000000000009B
:1031340000000000007000000000000804003000DF
:1031440000000B000400000000000000000000006C
:10315400000000000000000000000000000000006B
:10316400000000000000000000000000000000005B
:10317400000000000000000000000000000000004B
:10318400000000000000000000000000000000003B
:10319400000000000000000000000000000000002B
:1031A400000000000000000000000000000000001B
:1031B400000000000000000000000000000000000B
:1031C40000000000000000000000000000000000FB
:1031D40000000000000000000000000000000000EB
:1031E4000000000000E06F30002001000C000030FF
:1031F4000042750000000000000000000000000014
:1032040000000000000000000000000000000000BA
:1032140000000000000000000000000000000000AA
:10322400000000000000000000000000000000009A
:10323400000000000000000000000000000000008A
:103244000000000000FFAAFFFFFCFCEEDD00000010
:10325400000000000000000000000000000000006A
:103264000000000000E2E2FFFFFF99EEEE00000024
:1032740000FCFCFFC3EEEEEEDDFCCFFFF00000002F
:10328400000000000000000000000000000000003A
:10329400000000000000000000000000000000002A
:1032A400000000000000000000000000000000001A
:1032B400000000000000000000000000000000000A
:1032C40000000000000000000000000000000000FA
:1032D40000000000000000000009203000092078F0
:1032E40000000000000000000000000000000000DA
:1032F40000000000000000000009203000090478EC
:1033040000000000000920780009207800090478F2
:1033140000000000000000000000000000000000A9
:103324000000000000000000000000000000000099
:103334000000000000000000000000000000000089
:103344000000000000000000000000000000000079
:103354000000000000000000000000000000000069
:1033640000000000000000000009200000092448BB
:103374000009000000000000000000000000000040
:1033840000000000000000000000000000090448E4
:103394000009200000092448000920000009000059
:1033A40000092448000000000000000000000000A4
:1033B4000000000000000000000000000000000009
:1033C40000000000000000000000000000000000F9
:1033D40000000000000000000000000000000000E9
:1033E40000000000000000000000000000000000D9
:1033F40000000000000000000000000000CCF0FF0E
:10340400FFCCF0AACCEBEBFFFF00000000000000B3
:1034140000000000000000000000000000000000A8
:1034240000EBEBFCFCEE22FFFFCCF0AAF0CCAAFFF1
:10343400FFFAAFFFFFBB88E2E200000000000000DB
:103444000000000000000000000000000000000078
:103454000000000000000000000000000000000068
:103464000000000000000000000000000000000058
:103474000000000000000000000000000000000048
:10348400000000000000000000000000000E00002A
:1034940080000000004000382004120000000000FA
:1034A4000000000000000000000000000000000018
:1034B40000000000000C044080040D0000CE003029
:1034C40080040100000C00408004030000000000A0
:1034D40000000000000000000000000000000000E8
:1034E40000000000000000000000000000000000D8
:1034F40000000000000000000000000000000000C8
:1035040000000000000000000000000000000000B7
:1035140000000000000000000000000000000000A7
:103524000000001020000000000B048000002000B8
:103534000000000000000000000000000000000087
:1035440000000000000000000081101820000100AD
:1035540000090090200000000081041820001000E1
:103564000000000000000000000000000000000057
:103574000000000000000000000000000000000047
:103584000000000000000000000000000000000037
:103594000000000000000000000000000000000027
:1035A4000000000000000000000000000000000017
:1035B4000000000000000000001300000000C00034
:1035C4001307C40300000000000000000000000016
:1035D40000000000000000000000000000000300E4
:1035E40003EB000700C8C000002300030022010011
:1035F4000313C022C000000000000000000000000F
:1036040000000000000000000000000000000000B6
:1036140000000000000000000000000000000000A6
:103624000000000000000000000000000000000096
:103634000000000000000000000000000000000086
:103644000000000000000000000000000000000076
:10365400000082400000000800000000000000009C
:103664000000000000000000000000000000000056
:1036740000000800410000000000100002000001EA
:103684000000404020008000120000000000000004
:103694000000010000000000000000000000000025
:1036A4000000000000000000000000000000000016
:1036B4000000000000000000000000000000000006
:1036C40000000000000000000000000000000000F6
:1036D4000000000000000000000000000000038063
:1036E4000000000080400000000100000000000015
:1036F40000000000000000000000000000000000C6
:10370400000000000000A000000128000E3001802D
:10371400000000000662A00000010260200000001A
:103724000000000000000100000000000000000094
:103734000000000000000000000000000000000085
:103744000000000000000000000000000000000075
:103754000000000000000000000000000000000065
:103764000000000000000000000000000000000055
:1037740000000010000000020040000000000002F1
:1037840058000000000000000000000000000000DD
:1037940000000000000000000000000000002320E2
:1037A4001EB402000000E0002700480000000000F2
:1037B4000C000000000000000000000000000000F9
:1037C40000000000000000000000000000000000F5
:1037D40000000000000000000000000000000000E5
:1037E40000000000000000000000000000000000D5
:1037F40000000000000000000000000000000000C5
:103804000000000000000000000000000042204111
:103814008000000002000000000000000000000022
:1038240000000000000000000000000000043082DE
:1038340080000000100100414001C000000200812E
:103844004000000308000000000000000000000029
:103854000000000000000000000000000000000064
:103864000000000000000000000000000000000054
:103874000000000000000000000000000000000044
:103884000000000000000000000000000000000034
:103894000000000000000000000000000000000024
:1038A40000680000000001854000000000000000E6
:1038B4000000000000000000000000000000000004
:1038C40000080200000000030000000000000003E4
:1038D400100002E00000C000000000000000000032
:1038E40000000000000000000000000000000000D4
:1038F40000000000000000000000000000000000C4
:1039040000000000000000000000000000000000B3
:1039140000000000000000000000000000000000A3
:103924000000000000000000000000000000024051
:103934000000000000040000000018101C0000003B
:103944000000000000000000000000000000000073
:10395400000000000000018000000400411000008D
:10396400000070004200028000010384A0000000F7
:103974000000000000000100000000000000000042
:1039840000000000000000000000000080000000B3
:1039940000008000000000000000000000000000A3
:1039A4000000000000000000000000000000000013
:1039B4000000000000000000000000000000000003
:1039C4000000000010000000400008000000020099
:1039D400000000000000000000010800208000003A
:1039E40000000000000400040004088000800000BF
:1039F400000200000004000000800000000002003B
:103A040002000000000000000000010000000000AF
:103A140000000000000000000000000000000000A2
:103A2400000000000000000008000000000000008A
:103A3400000000000000000D000000000000000075
:103A4400080000000000000000000000000000006A
:103A5400000000000000B00030000000001008006A
:103A6400003000000000B000500800000000080012
:103A740000900000000000000000000000000800AA
:103A84000000000000000000000000B000906EB0D4
:103A9400000A00000A00000000000000000000000E
:103AA4000000000000000000000000000000000012
:103AB40000000000300000000000100001000000C1
:103AC40000000050000000000000000000000000A2
:103AD40000000000010000000000000000000000E1
:103AE40000000000000000000A000A0000000000BE
:103AF40030D000000080000000000000000B000037
:103B0400005C00002010000000000000000C000811
:103B1400005C003000100000000C0000000C0000ED
:103B2400001000000000000004000000000000007D
:103B34000000000000000000000000000000000081
:103B44000000000000000000000000000000000071
:103B54000000000000000000000000000000000061
:103B64000000000000000000000000000000000051
:103B74000000000000000000000000000000000041
:103B84000000000000000000000000000000000031
:103B94000000000000000000000000000000000021
:103BA4000000000000000000000000000000000011
:103BB4000000000000000000000000000000000001
:103BC400000000000000000000A88C30002001006C
:103BD4000E000030004275000000000000000000EC
:103BE40000000000000000000000000000000000D1
:103BF4000000000000FFFFFFFF00000000000000C5
:103C040000000000000000000000000000000000B0
:103C140000000000000000000000000000000000A0
:103C2400000000000000000000FFCCFFAA0000001C
:103C340000EDEDFFFFFAFAFFFF00000000FFF0FFC8
:103C4400FF00000000FCCFFFF000000000FC0CFFB0
:103C5400FF0000000000000000FFAAFF99CFC0FF92
:103C6400FF00000000000000000000000000000051
:103C74000000000000000000000000000000000040
:103C8400000000000000000000012470000000009B
:103C94000000000000000000000000000000000020
:103CA4000000000000000000000000000000000010
:103CB400000000000000000000000000000924785B
:103CC400000000000009003000092030000000005E
:103CD4000009203000000000000904780000000002
:103CE40000092030000000000000000000092078D6
:103CF4000009203000000000000000000000000067
:103D040000000000000000000000000000000000AF
:103D1400000000000000000000000000000000009F
:103D2400000000000000000000000000000000008F
:103D3400000000000000000000000000000000007F
:103D4400000000000000000000000000000000006F
:103D540000092000000900480009200000000000BC
:103D640000090000000920000000000000092000F4
:103D7400000920000009000000000000000000000D
:103D8400000000000000000000000000000000002F
:103D9400000000000000000000000000000000001F
:103DA400000000000000000000000000000000000F
:103DB40000000000000000000000000000000000FF
:103DC40000000000000000000000000000000000EF
:103DD4000000000000FFFFFFFF00000000000000E3
:103DE4000000000000FC30FFFFEDEDEEDDEE22FFF1
:103DF400FF00000000F9F9FFFFBB88FFFF0000008F
:103E040000BB88FFFFEEEEFFFFF9F9FFFF000000A3
:103E1400000000000000000000000000000000009E
:103E24000000000000080000000000000000000086
:103E3400000000000000000000000000000000007E
:103E4400000110000001000000000000000000005C
:103E5400000000000000000000000000000000005E
:103E6400000000000000000000000000000000004E
:103E7400000000000000000000C000382000020024
:103E84000040003000041200000E004080040100D5
:103E9400000C000080040100000190C0200100001B
:103EA400000000000000000000019000000102007A
:103EB40000000000000000000000000000000000FE
:103EC40000000000000000000000000000000000EE
:103ED40000000000000100000000080000000000D5
:103EE40000000000000000000000000000000000CE
:103EF40000000000000000000000000000000000BE
:103F0400000000000000000000000000000A04801F
:103F14000000200000090480000020000081001837
:103F240020000000000100102000000000820008B2
:103F3400000408000000000000000000000004006D
:103F44000004180000000000000000000000000051
:103F5400000000000000000000000000000000005D
:103F6400000000000000000000000000C00000008D
:103F7400000000000000000000000000000000003D
:103F8400000000000000000000000000000000002D
:103F9400000000000000000300000000000000001A
:103FA400000001000307C82213000300C0C0000082
:103FB4000000130000C0000300C80000000000035C
:103FC40000C000C00000001300000000000000005A
:103FD400000700000022002203000000000000008F
:103FE40000000000000000000000000000000000CD
:103FF40000000000000000000000000000000200BB
:10400400100000000000000000000000000000009C
:10401400000000000000000000000000000000009C
:10402400000000000000000000000080000000000C
:1040340000000000000040004000000000002000DC
:10404400801000000000000000100001000000408B
:104054000000000800100002000000000000000042
:104064000000000000000000000000000800000044
:10407400000000000000011000000000000000002B
:10408400000000000000000000000000000000002C
:10409400000000000002000000000000000000001A
:1040A400000000000000000000000000000000000C
:1040B40000000000000000000000000000000000FC
:1040C40000000000000000000000000000010020CB
:1040D40080000000000000000000028000000000DA
:1040E4000000028000000000010000000000000049
:1040F40000000000000000000000A000000001C05B
:1041040000000000000000000000010000000000AA
:10411400000000000000000000000000000000009B
:10412400000000000000000000300000000000005B
:10413400000000000000000000000000000000007B
:10414400000000000000000000000000000000006B
:104154000000000000000000000000000008000053
:1041640000006000000800000000000000000000E3
:1041740000006000000000000000000002000000D9
:104184000000000366000000000000000002A80018
:10419400000000000E00000000000000000000000D
:1041A400000000000000000000000000000000000B
:1041B40000000000000000000000000000000000FB
:1041C40000000000000000000000000000000000EB
:1041D40000000000000000000000000000000000DB
:1041E40000000000000000000000000000000000CB
:1041F40000100870000000420000300300020400B8
:104204000000028000001000000000800000000098
:104214000001000000000000000000000000000099
:104224000000000000000100100000000000000079
:10423400000000000000000000000000000000007A
:10424400000000000000000000000000000000006A
:104254000028000000000000000000000000000032
:10426400000000000000000000000000000000004A
:10427400000000000000000000000000000000003A
:1042840000000000000001C00000018300080000DD
:104294000000600000000000000060030C00020148
:1042A400000000030C000010400060030C0000003C
:1042B400000000000000000000000980020000006F
:1042C40000000000000000000000000000000000EA
:1042D40000000000000000000000000000000000DA
:1042E40000000000000200000000000000000000C8
:1042F40000000000000000000000000000000000BA
:1043040000000000000000000000000000000000A9
:104314000000000000000000004003800000005482
:104324004070C006000000000048010900000400BD
:10433400410003A9000000005D1001080000040012
:1043440041000000000000000000001600000050C2
:104354002000000000000000000001000000000038
:104364000000000000000000000000000000000049
:1043740002008000000000004200000000008000F5
:104384004000800000000000000000000000400029
:104394000000000044000000000000004001000094
:1043A4000000000000800000000000000000000089
:1043B40000000210012000000000000000000001C5
:1043C400000200000000000000000000000880005F
:1043D40000000000000000001000000000002000A9
:1043E4001000100010000000000000000000010098
:1043F40000000000000000000000000000000000B9
:10440400000000000000000000000A000000080096
:104414000000000900000000000008090000080076
:10442400000D00000000000000000000000000007B
:104434000000000000000000000000000000000078
:1044440000000030000000300000000D00000000FB
:10445400000000090E0E0000000000000000000033
:10446400000C900000B000000000000010000000EC
:104474000000000A300010003000000000000000BE
:1044840000000100000000000000000000500000D7
:104494000000000000000000080030000000007070
:1044A400380001000000307030003A0000700B004A
:1044B40000000100000030000000000018000000AF
:1044C40000000000300800000000000000100000A0
:1044D40000000000000000F0000000000C100000CC
:1044E4000000000000000008000C00000070000044
:1044F40000000000000010000000000000000000A8
:104504000000000000001000000000000000000097
:104514000000000000000000000000000000000097
:104524000000000000000000000000000000000087
:104534000000000000000000000000000000000077
:104544000000000000000000000000000000000067
:104554000000000000000000000000000000000057
:104564000000000000000000000000000000000047
:104574000000000000000000000000000000000037
:104584000000000000000000000000000000000027
:104594000000000000000000000000000000000017
:1045A40000000000000000000000000000EF0A30DE
:1045B40000200100100000300040005000081800E6
:1045C400000000000000000000FFFFFF00CCCCCC86
:1045D400CCF0F0AAAAFF00CCCCFF00F0F0CCCCFFCA
:1045E40000AAAACCCCF0F0FF00CCCCFF00FF00CC9A
:1045F400CCAAAAFF00CCCCCCCCFF00CCCCF0F0AA47
:10460400AAFF00CCCCCCCC55558000FFF0C9C9FF23
:10461400FFFAF5FFAAEEEEFF99FF99FFFF000000F5
:104624000000000000F9F9FFFF0000000000000096
:104634000000000000000000000000000000000076
:1046440000FFF0FFA5FC0CFC0C00000000000000C3
:1046540000000000000000000000000000000D78D1
:1046640014FB2D7E9DFB2D7E9DFB2D7E9DFB2D7EC3
:104674009DFB2D7E9DFB2D7E9DFB2D7E9DFB2D7E2A
:104684009DFB2D7E9DFB2D7E9DFB2D7E9DFB2D7E1A
:104694009DFB2D7E9DFB2D7E9DFB2D7E0D000478C4
:1046A400000920300009047800092078000900304E
:1046B40000000000000000000009003000000000BD
:1046C40000000000000000000000000000000000E6
:1046D4000000000000092078000924780000000090
:1046E40000000000000000000000000000000000C6
:1046F400000124400001244000F325469DF3254693
:104704009DF325469DF325469DF325469DF32546B9
:104714009DF325469DF321068D01244000012000D0
:10472400000000000009200000092448000124487A
:1047340000000000000000000009244800092000D7
:1047440000092000000920000000000000092000EA
:104754000000000000000000000000000000000055
:1047640000000000000000000000000000092048D4
:104774000000000000000000000000000000000035
:104784000000000000FFFFFFFFFFFFFFFF55557D06
:10479400BE7DBE7DBE7BDE7DBE7DBE6FF67DBE6F03
:1047A400F67BDE7DBE7BDE6FF67BDE7DBEFFFFFF2C
:1047B400FFFFFFFFFF00000000AA55FFFFCCC6F07B
:1047C400E10011CF300010FEFFFFFFC000AACCF5BE
:1047D400A0D8D8FFFFAACCFFFFFFF0FFFF00000026
:1047E40000BB88FFFF000000000000000000000084
:1047F40000000000000000000000000000000000B5
:1048040000FFCCF9F90000000000000000000000E7
:104814000000000000000000000F1430800412109B
:104824002201143080041215220114308004121164
:104834004100983080041220A20114308004122414
:10484400412098308004120000019C008004120072
:1048540000011430800412042200040000010C0042
:10486400100C00308004120000C000382000020048
:10487400000C0000800401000000000000000000A3
:104884000000000000000000000000000000000024
:1048940000009080200102000000000000000000E1
:1048A400000000000000000000000000008314105D
:1048B400000020214783141000002022C783141015
:1048C40000002034C783141000002034C78714105C
:1048D4000000202047931410000020004703141008
:1048E40020002010C783149020802022C7011000CC
:1048F400000409004009049020002000000A0480FC
:104904000000200000010010200000000000000052
:104914000000000000000000000000000000000093
:104924000000000000020400000418000000000061
:104934000000000000000000000000000000000073
:104944000000C7C883C3002244C802808BC0C4CB04
:10495400800057C301CB80C700C0D3C083E2C883A3
:1049640000C0D340C300E022C0C8E3C00200C0229C
:10497400C400E0220322C8CFC8C8E122D7E2C1871D
:10498400C8C0000810034420420013C00300C0073D
:104994000200030300C80007000003001300000323
:1049A4000000000000000000000000000000000003
:1049B40000000000000000000013030002000001DA
:1049C400470000000000000000000010000000008C
:1049D4000000000000000400C00A030000000402FC
:1049E4002082000880000003400880200102108417
:1049F40084200003000410A08480000010002082A2
:104A04000480100000000240080000000000404044
:104A14000002500200100000000800000300001013
:104A24000480800004002001000000000000080051
:104A3400000000080000000000000000000000006A
:104A44000000000000000000000000000000200042
:104A540004800001080000000000000000000110B4
:104A64000000000000000000000000000000000042
:104A740000040000150090078EE001C014007002CD
:104A8400806055000E0029C3800402804000682421
:104A94004E000000400000002E000280000001C013
:104AA400000002A0000001CF016028180000700778
:104AB4000032500A000070000E7000000000000078
:104AC400000002C000000000000000000000000020
:104AD40000000000000000000000000000000000D2
:104AE40000000000000000080800000000000000B2
:104AF40000000100000000000000000000000000B1
:104B0400140000000E6001A00900000410600440BD
:104B1400000020030E68011000002004007801C08A
:104B24001000200210000000080000001000000027
:104B340000000000006800040002000008040100F6
:104B44000000C1800E804003400000021E8000006F
:104B54000000070D00000000000000002600000017
:104B64000000000000000000000000000000000041
:104B74000000000000000000000000000E00000023
:104B84000000000000000000000000000000000021
:104B9400000000003C000000140418C004000004DD
:104BA400008300101D0050011844004030001129FA
:104BB400800402A0240290040000200000000000F1
:104BC4000000008180000100000C00F004061100C8
:104BD4000020C00000005604100802080000401025
:104BE400900120800000000000000002000000008E
:104BF40000000000000000000000000000000000B1
:104C0400000000000000000000004CC00000004054
:104C14005000000000000000000000100000000030
:104C24000000000000000000080000000040010037
:104C34000C00E0054C12C1C01000618480400120CA
:104C440041009004004800400000001400000000EF
:104C54002C0000000000000000000180000001C0E2
:104C640000380187009011080000F1800008080056
:104C740000006187000000000000600000000200E6
:104C8400000000030000000000000000000000001D
:104C9400000000000000000000000000000000CB45
:104CA40080000180000000000000000000000010EF
:104CB400000000000000000000000000000003806D
:104CC400000004000901180B0130024000000C1719
:104CD400804803861001700006700B800000138565
:104CE400A00000001E00038000000000000000106F
:104CF40080080000000078108074040E0001115038
:104D04000000228000007F90861000000000041044
:104D140000000196000000004000000000000000B8
:104D2400000000000000000000000000000000007F
:104D34000000A40A0000015B3C0000000000000029
:104D44000000010000000009000000000002000053
:104D54000204020000000000100002200200000013
:104D64001200402082814010020402000200001858
:104D7400000002084A08008900000A084A008888DE
:104D84000000020842100004000000400002180065
:104D940000000000000000000000002100000000EE
:104DA4000000000008200040000000000000000097
:104DB40000000000000000000000000000000000EF
:104DC40000000200000000000000000002000000DB
:104DD40000000000000001000000000400000000CA
:104DE400000000000000000000006000200000003F
:104DF4000006000020007000700060090000000040
:104E04000A00000400909000040800040000480018
:104E1400040608040000000000266A09000042009D
:104E2400000010096000000900006000080940004B
:104E3400000000000000000004000D7000000000ED
:104E4400000000000000000000000000000000005E
:104E5400000000000000000000000000000000004E
:104E64000000000000000000000001000000000835
:104E740000000000000400000804000000700A00A4
:104E8400000000000442C20008000000341C30008E
:104E9400080400000850000000000000340000383E
:104EA4000000000014003010000000003400000076
:104EB400000000200000000000000000005000007E
:104EC4000100000800000000000000000010003095
:104ED40000000000000000000000000000000000CE
:104EE40000000000000000000000080000000000B6
:104EF40000000000040000000000000000000000AA
:104F0400000000000000000000000000000000009D
:104F1400000000000000000000000000000000008D
:104F24000800000000000000000000000000000075
:104F3400000000000000000000000000000000006D
:104F44000000000000000000000402002000000037
:104F5400000000000000000000000000000000004D
:104F6400000000000000000000000000000000003D
:104F7400000000000000000000000000000000002D
:104F8400000000000000000000000000000000001D
:104F9400000200000000000000000000000000000B
:104FA40000000000000000000000000000000000FD
:104FB40000000000090000000000000000000000E4
:104FC40000000000000000000000000000000000DD
:104FD40000000000000000000000000000010004C8
:104FE400800000000000000000000000000000003D
:104FF40000000000000000000000000000000000AD
:10500400000000000000000000000000000000009C
:10501400000000000000000000000000000000008C
:1050240000000000000380000000000000000000F9
:10503400000000000000000000000000000000006C
:105044000000000000000000040000000000000058
:10505400000000000000000000000000000000004C
:10506400000000000000000000000000000000003C
:1050740000400004000000000000000000000000E8
:10508400000000000000000000000000000000001C
:10509400000000000000000000000000000000000C
:1050A40000000000000000000000000000000000FC
:1050B400000000000000000000018000000000006B
:1050C400000000000000000000FFFFFFFFFFFFFFE3
:1050D400FFFFFFFFFFFFFFFFFFFFFFFFFFFFFFFFDC
:1050E400FFFFFFFFFFAFAFFFFFFFFFFFFFFFFFFF6C
:1050F400FFFFFFFFFF0000000000000000000000B1
:1051040000000000000000000000000000FFCCFFD1
:10511400FFFCCFFFFF0000000000000000000000C3
:10512400000000000000000000000000000000007B
:1051340000000000000000000000000000EEDDFFA1
:10514400FFFC0CFFFF000000000000000000000056
:1051540006000000000000000000000000012030F4
:1051640000012470000124700001247000012470E7
:10517400000124700001247000012030000124701B
:105184000001203000012470000000000000000035
:10519400000000000000000000000000000000000B
:1051A4000009203000090030000000000000000069
:1051B40000000000000000000000000000000000EB
:1051C40000000000000000000000000000000000DB
:1051D4000009003000092030000000000000000039
:1051E40000000000070000000000000000000000B4
:1051F400000000000001244000012440000124407C
:10520400000124400001244000012440000120004A
:1052140000012440000120000001200000000000E3
:10522400000000000000000000000000000000007A
:10523400000000000000000000000000000000006A
:10524400000000000000000000000000000000005A
:10525400000000000000000000000000000000004A
:105264000000000000000000000920000000000011
:10527400000000000000000000000000000000002A
:10528400000000000000000000FFFFFFFFFFFFFF21
:10529400FFFFFFFFFFFFFFFFFFFFFFFFFFFFFFFF1A
:1052A400FFCFCFFFFFFFFFFFFFFFFFFFFFFFFFFF6A
:1052B400FF000000000000000000000000000000EB
:1052C40000000000000000000000000000000000DA
:1052D40000000000000000000000000000000000CA
:1052E40000000000000000000000000000000000BA
:1052F40000000000000000000000000000FFAAFF02
:10530400FF00000000000000000000000200000098
:10531400000000000000000000010000304C0030DC
:1053240080010C002ACE083080010C0024CE983075
:1053340080010C00000F10308001022400000030B6
:1053440080010C22D10000000000000000000000D9
:105354000000000000000000000000000000000049
:105364000004120000000000000000000000000023
:105374000000000000000000000000000000000029
:105384000000000000000000000000000001108088
:1053940020010200000000000000000000000000E6
:1053A40000000000000000000001000000000800F0
:1053B400408B041000000800618B141000000800EA
:1053C400408B1410000008000083041008002820FB
:1053D4000083041000000821D10000000000000038
:1053E40000000000000000000000000000000000B9
:1053F4000001040000002000000000000000000084
:105404000000000000000000000000000000000098
:105414000000000000000000000000000000000088
:105424000002040000041800000000000000000056
:105434000001000000000000000000000000000067
:1054440000000300C022C300C0C04401CB0100031C
:1054540000D3E0C3020744C00301C0001300C340EB
:10546400E31300C2C1C8C0C013C000C300000000E1
:105474000000000000000000000000000000000028
:10548400000000000007000003000003000000000B
:105494000000000000000000000000000000000008
:1054A40000000000000000000000000000000000F8
:1054B40000000000000000001303000700000000CB
:1054C40000000000000000100000000000000000C8
:1054D4000000000000000800100088001284000191
:1054E4000401000803020028040000100401808065
:1054F400000030402000018241001090008400032D
:105504000000000000000000000000000000000097
:105514000000000000000000000000000800000877
:105524000000000000000000000000000000000077
:105534000000000000000000000000000000000067
:10554400000000000000000000000000000800004F
:105554000000000000000000000001100000000036
:105564000000000000000000000000000000000037
:1055740016000000000000001410000000000000ED
:1055840014040000000000001403000000000000E8
:1055940000080000000000000000000000000000FF
:1055A40000000000000000000000000000000000F7
:1055B40000000000000000000000000000000000E7
:1055C40000000000000000000000000000000000D7
:1055D4000000000000000000000000000000A280A5
:1055E400000000000000000000000000000C0000AB
:1055F400000000000000000000000000002C00007B
:105604000000000000B80000000000002E000000B0
:10561400000000000A2C0000000000000090C00000
:105624000000000000B800000000000000000000BE
:105634000000000000000000000000000000000066
:1056440000000000000000A0200000000000000096
:105654000000000000000000000000000000000046
:105664000000000000000000000000000000000036
:105674000000081000000180080000000000000085
:10568400000A00000000000000000000000000000C
:1056940000000000000000003408000000000000CA
:1056A4002450000000000000072400000000200037
:1056B40008000000000000002408000000000000B2
:1056C40000000000000000000000000000000000D6
:1056D40000000000000000000000000000000000C6
:1056E40000000000000000000000000000000000B6
:1056F40000000000000000000000000000000000A6
:10570400000000000000000000000400020000008F
:105714000000000000000010000000000000000075
:1057240000000000000000000000000008780000F5
:105734000000000000000000000000000828000035
:1057440000090000103C00000000000000300000D0
:105754000000000000000000000000000000000045
:1057640000000000000000000000000000000180B4
:105774000C00000000000000000000000000000019
:105784000000000000000000000000000000000015
:105794000000000000000000000000000000018381
:1057A4000C00000000000000000280000000000067
:1057B40000000000000000000000000000000000E5
:1057C400003A00000000000014B4000000000000D3
:1057D400143800000000C0001F000000000000009A
:1057E400088000000000000000000000000000002D
:1057F4000000000000000000000000000000001A8B
:105804000000001001000000000000000000000083
:105814000000000000000000000000000000000084
:10582400000000000000000000000000000000165E
:105834000000001041000000000000000000010012
:10584400000000010000000000000004100000003F
:1058540000020000080000120A0000081000020202
:105864000810001110000000040020440040000053
:10587400041000900000000000000004000000007C
:1058840000000004200000020000000000100000DE
:10589400001000000000000000000008204000008C
:1058A400000000000000000000000000000880006C
:1058B40000000000000000000000000000000000E4
:1058C40000000000100000000000000000000000C4
:1058D4000000010000000010000000000000900023
:1058E40020000000B000909000000000BC0E900862
:1058F400200040007820600A20094090B00066062D
:105904006009401076300000000000000E00000E18
:10591400000900000E00509000000000300090903C
:10592400001000900030000000B000B00000000C37
:105934000050000000000000000000000000000013
:10594400000C000000000000000000000000000047
:10595400000070040000000030000000500000004F
:1059640000000000000000000000008800000000AB
:105974000000000400000000007C00000000000C97
:105984000400000000000C0C0000000800000000EF
:105994000400003400100080040000100000000027
:1059A4000000000000000000000000040002000CE1
:1059B4008000000000000000000000000000000063
:1059C40000000000001000000000000000000000C3
:1059D40000000000000010000000000000000600AD
:1059E4000000000000000001600000000000000052
:1059F40000000000000000000000000000000000A3
:105A04000000000000000000000000000000000290
:105A1400000000000000000000000000080000007A
:105A2400000000000000000000000000040000006E
:105A34000000000000000000000000000000000062
:105A440000080000000080000000000010000000BA
:105A54000000000000000000001000000000000032
:105A64000000000000000000000000000000000032
:105A740000080000000000000000000040000000DA
:105A84000000000000000000000000000000000012
:105A94000000000000000000000000000000000002
:105AA40000000004000000000000000000000000EE
:105AB40009000000000000000000000000000000D9
:105AC40001000000000000000000000000000000D1
